:1008000000000420BD0C0000A33401009D34010051
:10081000490D0000490D0000490D000000000000D6
:1008200000000000000000000000000041FE000089
:10083000490D00000000000011FF000075FF0000DE
:10084000610D0000650D0000690D00006D0D0000D8
:10085000710D0000750D0000790D00007D0D000088
:10086000810D0000850D0000890D00008D0D000038
:10087000910D0000950D0000990D00009D0D0000E8
:10088000A10D0000490D0000490D0000490D0000B8
:100890005952000067520000755200008352000058
:1008A000915200009F520000AD520000BB52000068
:1008B000C50D0000C90D0000CD0D0000D10D0000D8
:1008C000D50D0000D90D0000DD0D0000E10D000088
:1008D000E50D0000E90D0000ED0D0000F10D000038
:1008E000F50D0000F90D0000FD0D0000010E0000E7
:1008F000050E0000090E00000D0E0000110E000094
:10090000150E0000190E0000490D0000490D0000F1
:10091000490D0000490D0000490D0000490D00007F
:10092000216F0100490D0000490D0000490D000034
:10093000490D000041520100490D0000490D000021
:10094000490D0000490D0000490D0000490D00004F
:10095000490D0000490D0000490D0000490D00003F
:10096000490D0000490D0000490D00001D0E00005A
:10097000210E0000250E0000290E00002D0E0000A3
:10098000310E0000350E0000390E0000490D000048
:10099000490D0000490D0000490D0000490D0000FF
:1009A000490D0000490D0000490D0000490D0000EF
:1009B000490D000055520100490D0000490D00008D
:1009C000490D00003D0E0000490D0000490D0000DA
:1009D000490D0000490D00000152010015520100AF
:1009E000490D0000195201002D520100490D00006F
:1009F000490D0000490D0000410E0000450E0000A9
:100A0000490D0000490D0000490D0000490D00008E
:100A1000490D0000490D0000C1340100954C010052
:100A20003D1B0000490D0000490D0000490D00006C
:100A3000490D0000490D0000490D0000490D00005E
:100A4000490D0000490D0000490E00004D0E000048
:100A5000490D0000510E0000550E0000A97B010059
:100A6000F5680100590E00005D0E0000610E0000E7
:100A7000650E0000690E00006D0E0000490D0000BB
:100A8000490D0000490D0000490D0000490D00000E
:100A9000490D0000490D0000490D0000490D0000FE
:100AA000490D0000490D0000490D0000490D0000EE
:100AB000490D0000490D0000490D0000490D0000DE
:100AC000490D0000490D0000490D0000490D0000CE
:100AD000490D0000490D0000490D0000490D0000BE
:100AE000490D0000490D0000490D0000490D0000AE
:100AF000490D0000490D0000490D0000490D00009E
:100B0000490D0000490D0000490D0000490D00008D
:100B1000490D0000490D0000490D0000490D00007D
:100B2000490D0000490D0000490D0000490D00006D
:100B3000490D0000490D0000490D0000490D00005D
:100B4000490D0000490D0000490D0000490D00004D
:100B5000490D0000490D0000490D0000490D00003D
:100B6000710E0000750E0000790E00007D0E000071
:100B7000490D0000490D0000490D0000490D00001D
:100B8000490D0000490D0000810E0000850E000097
:100B9000890E00008D0E0000490D0000490D000077
:100BA000910E0000950E00008D3401008D3401007F
:100BB0008D3401008D3401008D3401008D3401002D
:100BC0008D3401008D3401008D3401008D3401001D
:100BD0008D3401008D3401008D3401008D3401000D
:100BE0008D3401008D3401008D3401008D340100FD
:100BF0008D3401008D3401008D340100FFFFFFFFB3
:100C000010B5054C237833B9044B13B10448AFF346
:100C100000800123237010BD80AE00200000000082
:100C20006457020008B5034B1BB103490348AFF3F7
:100C3000008008BD0000000084AE00206457020060
:100C4000A3F5803A704700BF174B002B08BF134B2A
:100C50009D46FFF7F5FF00218B460F461348144AC7
:100C6000121A1BF0F1F90E4B002B00D098470D4BD8
:100C7000002B00D098470020002104000D000D48F3
:100C8000002802D00C48AFF300801BF06FF9200061
:100C9000290013F0D9FC1AF0DFFF00BF00000800A4
:100CA00000000000000000000000042080AC0020D4
:100CB00068FD0120000000000000000072B6164828
:100CC000164901600A6882F308881548804715496B
:100CD000154A164B9A42BEBF51F8040B42F8040B5A
:100CE000F8E7134A134B9A42BEBF51F8040B42F87F
:100CF000040BF8E7104B00209A42BCBF42F8040BEB
:100D0000FAE70E490E4A00209142BCBF41F8040B9D
:100D1000FAE762B60B48804708ED00E000080000E3
:100D2000D91C0000F85702000080002068AC0020A9
:100D300000000020000000207840002080AC00204F
:100D400068FD0120490C000012F0A0BB524800478A
:100D5000524800475248004752480047524800470F
:100D600052480047524800475248004752480047FF
:100D700052480047524800475248004752480047EF
:100D800052480047524800475248004752480047DF
:100D900052480047524800475248004752480047CF
:100DA00052480047524800475248004752480047BF
:100DB00052480047524800475248004752480047AF
:100DC000524800475248004752480047524800479F
:100DD000524800475248004752480047524800478F
:100DE000524800475248004752480047524800477F
:100DF000524800475248004752480047524800476F
:100E0000524800475248004752480047524800475E
:100E1000524800475248004752480047524800474E
:100E2000524800475248004752480047524800473E
:100E3000524800475248004752480047524800472E
:100E4000524800475248004752480047524800471E
:100E5000524800475248004752480047524800470E
:100E600052480047524800475248004752480047FE
:100E700052480047524800475248004752480047EE
:100E800052480047524800475248004752480047DE
:100E90005248004752480047A33401009D340100E6
:100EA00041FE000011FF000075FF0000496F0000C7
:100EB000816F0000B96F0000F16F00002970000021
:100EC0006170000099700000D1700000097100008D
:100ED0004171000079710000B1710000E9710000FA
:100EE000217200005972000091720000490D00004B
:100EF000518B0000718B0000918B0000B18B0000C2
:100F0000D18B0000F18B0000118C0000318C0000AF
:100F1000518C0000718C0000918C0000B18C00009D
:100F20003D8600004986000055860000618600006D
:100F30006D86000079860000A5860000D986000035
:100F40000D8700004187000075870000A987000019
:100F5000490D0000490D0000490D0000490D000039
:100F6000490D0000490D0000490D0000490D000029
:100F7000490D0000490D0000490D0000490D000019
:100F8000490D0000490D0000490D0000490D000009
:100F9000490D0000517B0000490D0000490D000083
:100FA000490D0000257400003974000061740000D0
:100FB000757400004D74000089740000490D000034
:100FC000490D0000658D0000490D0000490D00002D
:100FD000490D0000490D0000490D0000490D0000B9
:100FE000490D000053B94AB9002908BF00281CBFA9
:100FF0004FF0FF314FF0FF3000F082B9ADF1080C37
:101000006DE904CE00F01AF8DDF804E0DDE9022312
:1010100004B07047430803F05533C01A830803F047
:10102000333300F03330184400EB101000F00F3071
:1010300000EB002000EB0040000E70472DE9F04768
:10104000089D04468C46002B40F083808A42174658
:1010500047D9B2FA82F242B1C2F1200024FA00F07C
:101060009140974040EA010C94404FEA1748230C06
:10107000BCFBF8F61FFA87FE08FB16C143EA0143E2
:1010800006FB0EF1994209D9FB1806F1FF3080F0FA
:101090001981994240F21681023E3B445B1AA4B288
:1010A000B3FBF8F008FB103344EA034400FB0EFEE8
:1010B000A64509D93C1900F1FF3380F00581A6450A
:1010C00040F2028102383C4440EA0640A4EB0E04A0
:1010D00000261DB1D4400023C5E900433146BDE8D8
:1010E000F08702B9FFDEB2FA82F2002A50D1CB1BA0
:1010F0004FEA174E1FFA87F80126B3FBFEFC210CBE
:101100000EFB1C3341EA034108FB0CF38B4207D969
:1011100079180CF1FF3002D28B4200F2E98084464C
:10112000C91AA3B2B1FBFEF00EFB101143EA014451
:1011300008FB00F8A04507D93C1900F1FF3302D2A3
:10114000A04500F2D9801846A4EB080440EA0C4000
:10115000BFE78B4209D9002D00F0B1800026C5E918
:10116000000130463146BDE8F087B3FA83F6002E21
:101170004AD18B4202D3824200F2B880841A61EBDA
:10118000030101208C46002DA8D0C5E9004CA5E73D
:10119000C2F1200320FA03F6974001FA02F04FEA69
:1011A000174ED9403043030CB1FBFEF61FFA87F807
:1011B0000EFB161143EA014306FB08F1994204FABB
:1011C00002F409D9FB1806F1FF3C80F08D809942AA
:1011D00040F28A80023E3B445B1A81B2B3FBFEF0D0
:1011E0000EFB103341EA034100FB08F38B4207D9A1
:1011F000791800F1FF3C73D28B4271D9023839441F
:10120000CB1A40EA064678E7C6F1200C03FA06F44A
:1012100022FA0CF31C4320FA0CF701FA06F34FEA0A
:10122000144E21FA0CF11F433B0CB1FBFEF91FFADF
:1012300084F80EFB191143EA014109FB08FA8A45BB
:1012400002FA06F200FA06F308D9611809F1FF3034
:1012500048D28A4546D9A9F102092144A1EB0A01E5
:10126000BFB2B1FBFEF00EFB101147EA014700FBD5
:1012700008F8B84507D9E71900F1FF312ED2B84573
:101280002CD90238274440EA0940A7EB0807A0FB05
:1012900002894F45C64649461AD317D05DB1B3EB14
:1012A0000E0267EB010707FA0CFCF2404CEA02025F
:1012B000F740C5E9002700263146BDE8F0872E46F5
:1012C00028460BE70646E9E61846FDE64345E5D223
:1012D000B8EB020E69EB04010138DFE70846D2E7FC
:1012E00060468DE78146B9E7664675E730464AE7CE
:1012F000ACF1020C394413E702383C4424E700BF48
:10130000704700BF00000000000000000000000067
:1013100001F0FF01102A2BDB10F0070F08D010F8A6
:10132000013B013A8B422DD010F0070F42B3F6D1AA
:10133000F0B441EA012141EA014122F007047FF0C3
:1013400000070023F0E80256083C85EA010586EA1A
:10135000010685FA47F5A3FA87F586FA47F6A5FA56
:1013600087F68EB9EED1F0BC01F0FF0102F0070262
:1013700032B110F8013B013A83EA010313B1F8D10D
:101380000020704701387047002D06BF35460338EE
:10139000073815F0010F07D1013015F4807F02BF27
:1013A000013015F4C03F0130F0BC0138704700BF78
:1013B000034613F8012B002AFBD1181A0138704795
:1013C000836810B5044613B10322014698472046AE
:1013D00010BD0000044B10B5044640F8043BFFF775
:1013E000EFFF204610BD00BFC422020010B5044626
:1013F00000F59060FFF7E4FF204610BD70B50C4E7D
:101400003378BFF35B8F13F001040FD130461AF02D
:10141000CCF958B1074D3046074BEC602B601AF001
:10142000D0F9064A284606491AF0B4F9014870BDB9
:1014300098B400209CB400202423020000800020E7
:10144000D5130000F7B53F481BF05CFCFFF7D6FF53
:1014500012F0DAFEFFF7D2FF4FF4FA7112F0B0FE8D
:10146000002868D1384E3578BFF35B8F15F0010541
:1014700057D130461AF099F9002852D0334B344CEA
:101480001A68A71D2560C4F806209A8853F8060F2D
:10149000628104F10C025968257184F8285003C256
:1014A0009868012304F10C01106002222377304672
:1014B00084F8403084F84C3004F1380384F82C2050
:1014C000636504F1500384F85020A3654FF48173E1
:1014D0002576A4F85C301F4BC4E90C1540F20221BC
:1014E000A16304F11801E1630A21C4E918356164BC
:1014F00004F1580304F12801C4E90875A164A36646
:10150000C4F88854C4F89C54C4F8E055C4F8E455B1
:10151000C4F8E8551AF055F90F4A20460F491AF059
:1015200039F90F4B0F4A104909480093192312F05B
:1015300011F910F0B7F9002003B0BDE8F04010F049
:10154000EDBD00BF6CEC01009CAE0020C8EB0100BB
:10155000A0AE0020BD15000000800020ED130000AB
:10156000A7EC010085EC01008EEC010070B58B68E2
:10157000164604460D1D012253B118691D463268F6
:10158000904287BF98680122D86800220346F3E79B
:1015900092B1CA68AA4203D1C4E90035204670BDA1
:1015A00028461AF07BF9336802699A424FF000032B
:1015B000F2D3C4E90003F1E72846F4E72DE9F04F40
:1015C00092464B4A8146141D95689046A3462DEDE0
:1015D000028B08EE101A85B045B12A694A453ABF18
:1015E000EA682546AA682C461546F5E75C4502D010
:1015F0002269914530D218201AF0E6F800225C45A5
:101600000746426100F11002C0F810902FD1D8F8BF
:10161000141021B1D8F810603169494509D3344913
:1016200002A8FFF7A3FFDDE90246002E5BD0002CE5
:1016300057D15E4555D03869336998422CBF002098
:1016400001202C4B324639461AF02AF9D8F81430CA
:101650000133C8F814303C46524618EE101A60693F
:1016600005B0BDEC028BBDE8F04F13F0F5BF21696A
:101670000192894519D2D8F80C108C4209D0204625
:101680001AF00CF90169019A494505D2C16851B9AE
:10169000044626460C46C8E7154902A8FFF766FF30
:1016A000DDE90214F5E72146F3E71CD9D8F810600C
:1016B000B4420BD020461AF0DEF801690546019AC3
:1016C000494505D9E36853B926461D462C46ACE783
:1016D000074902A8FFF74AFFDDE90256F6E706468A
:1016E000F4E70120ADE7384627461AF058F8B2E78C
:1016F0001C0B0120200B012013B5019011F0A4FD5B
:10170000044618B1019A00211AF09EFC204602B04E
:1017100010BD11F09BBDEFF305835BB1EFF31183B7
:101720004FF0200282F31188BFF36F8FBFF34F8F0A
:10173000036070470EF096BBEFF3058313B180F39F
:10174000118870470EF0BCBB10B5044630B9084B89
:1017500040F2ED11074A08481AF052FA04200EF040
:10176000FDFF10B12060002010BD43F2DD70FBE7EB
:1017700041ED01008DED0100ECEC010008B530B940
:101780000B4B40F20A210B4A0B481AF039FA4B1C5A
:1017900000681EBF4FF47A735943B1FBF3F10FF0A9
:1017A000BFFA002843F2DE7018BF002008BD00BF5A
:1017B00041ED01009DED0100ECEC010008B530B9F0
:1017C000074B40F22A21074A07481AF019FA006825
:1017D0000EF09AFF002843F2DD7018BF002008BD0C
:1017E00041ED0100ABED0100ECEC010008B530B9B2
:1017F000054B4FF41071054A05481AF001FA0068CC
:101800000FF004FB002008BD41ED0100BBED01001D
:10181000ECEC010038B50D46044630B9084B4FF4E6
:101820001471084A08481AF0EBF90EF015F9206017
:1018300010B10020257138BD43F2DD70FBE700BF19
:1018400055ED0100CCED0100ECEC010037B50025B1
:10185000019530B9144B40F26A21144A14481AF029
:10186000CFF90068E8B1EFF30584B4B101AA0EF036
:101870003DFA012804D00F4B4FF41E710B4AEDE7DF
:10188000019840B10C4B4FF080521A60BFF34F8F5C
:10189000BFF36F8F284603B030BD0EF09DF9204690
:1018A000F9E743F2DD70F6E755ED0100DCED0100EC
:1018B000ECEC010069ED010004ED00E073B5069D5C
:1018C00030B9114B40F2E121104A11481AF098F951
:1018D000066821F07F449EB101793046009313469B
:1018E0000A1E214618BF01220EF0C4F8204005B19F
:1018F0002860002843F2DE7018BF002002B070BDDF
:1019000043F2DD70FAE700BF55ED0100E9ED01009B
:10191000ECEC010008B530B9074B40F21731074A2B
:1019200007481AF06DF9006818B10EF0B1F90020FF
:1019300008BD43F2DD70FBE755ED0100F7ED010056
:10194000ECEC010010B504460846114634B9084BCA
:1019500040F22D31074A08481AF052F900220EF0E1
:1019600061FD10B12060002010BD43F2DD70FBE787
:101970007AED010008EE0100ECEC010013B530B97E
:10198000144B40F24931144A14481AF039F9002432
:1019900000680194EFF305839BB1234601AA0EF082
:1019A000EFFE012812D1019B13B9002002B010BD37
:1019B0000B4B4FF080521A60BFF34F8FBFF36F8F06
:1019C000F3E71A460EF0AEFD0128EED043F2DD70CB
:1019D000ECE700BF7AED010017EE0100ECEC01002E
:1019E00004ED00E008B530B90B4B40F271310B4A01
:1019F0000B481AF005F9531C00681EBF4FF47A73A8
:101A00005A43B2FBF3F20EF0DDFF012843F2DE7021
:101A100008BF002008BD00BF7AED010023EE0100E1
:101A2000ECEC010008B530B9054B40F2A131054A94
:101A300005481AF0E5F800680FF0E8F9002008BD45
:101A40007AED01002FEE0100ECEC010007B5186CF7
:101A500001A99A630EF02CFF019B3BB1054B4FF09F
:101A600080521A60BFF34F8FBFF36F8F03B05DF8E2
:101A700004FB00BF04ED00E02DE9F0410D461646E1
:101A80001F46044630B329B3442200211AF0DCFA81
:101A900004200EF063FEE06348B103220021012020
:101AA0000EF0C0FC206420B9E06B0FF0AFF901200C
:101AB0000EE0A0463A463146284648F8045B06F058
:101AC00045FB28462346044A414606F0C5FB002054
:101AD000BDE8F0810420FBE74D1A00004FF0FF3114
:101AE000C06B0FF01DB9C06B0EF00EBE37B50446CB
:101AF0000191FFF7F3FF012813D1019A211D2068FE
:101B000006F0E6FB054628B12046FFF7ECFF284625
:101B100003B030BD4FF0FF31206C0FF013F8A56B10
:101B2000F2E74FF46175F2E70123024A1370024AAB
:101B300093607047C8B4002000000F40FFF7F4BF67
:101B40002DE9F8432C4B1C68844228BF044604B39B
:101B50002A4E2B4D3368DFF8B49023F00103D9F8F7
:101B6000008033602B6823F001032B6072B6BFF353
:101B70004F8FBFF36F8F10F02DFD224F58B9AB6818
:101B80006B602B6843F001032B603B68013B6B608B
:101B900062B6BDE8F883013C08FB04F333613368A7
:101BA00043F001033360BFF34F8F30BFBFF36F8F3C
:101BB000154B00221A7062B600BF1978B1B11A70C5
:101BC0000E4A0F4D136823F0010313600EF04AF91B
:101BD0002B68204643F001032B6010F0B7F93B68F7
:101BE000013B6B60BDE8F8430EF06AB9746AD9F83E
:101BF0000000B4FBF0F4E3E7D0B4002000000F4095
:101C000010E000E0CCB40020C8B40020C4B4002030
:101C10000C4B64221A6002220B4B1A606FF00042D8
:101C20000A4B1A600A4B4FF08072DA60002243F8C8
:101C3000F02C43F8E82C632243F8EC2C032243F801
:101C4000F02C7047CCB40020C4B40020D0B40020E5
:101C500000E100E00B1E10DD00F01F011944BFF38E
:101C60004F8F064A0144C2F85C0220300B1A002B49
:101C7000F9DCBFF34F8FBFF36F8F704700ED00E0CB
:101C80000B1E10DD00F01F011944BFF34F8F064AF1
:101C90000144C2F8680220300B1A002BF9DCBFF3B4
:101CA0004F8FBFF36F8F704700ED00E00B1E10DD0C
:101CB00000F01F011944BFF34F8F064A0144C2F8D8
:101CC000700220300B1A002BF9DCBFF34F8FBFF3EB
:101CD0006F8F704700ED00E03C4A08B5D2F88830BD
:101CE00043F47003C2F88830394A1388580705D581
:101CF000138823F004031B041B0C1380354A13883C
:101D0000590705D5138823F004031B041B0C13800B
:101D1000314B1A6892044CD5304A5A604FF6FF7224
:101D20009A601A6822F0A00242F020021A602C4B3E
:101D30001A68900443D5294A5A604FF6FF729A6098
:101D40001A6822F0A00242F020021A60254B1A689D
:101D5000D10703D51A6822F001021A601B4B5A6999
:101D6000920315D45A6912F4003211D1BFF34F8F88
:101D7000BFF36F8FC3F85022BFF34F8FBFF36F8F46
:101D80005A6942F400325A61BFF34F8FBFF36F8F2D
:101D9000154A136F23F4005313670C4A536943F039
:101DA00010035361BFF34F8FBFF36F8F00F04AF8FA
:101DB00008BD4CF220525A604DF62812ADE74CF2A5
:101DC00020525A604DF62812B6E700BF00ED00E041
:101DD00000000340004003400080034020C528D994
:101DE0000000C14010E000E000400E4010B5C4010A
:101DF0000E4A04F1814402EBC00004F59804236804
:101E0000C3F30223C05C04F0BBFB23680246DBB2D1
:101E100001339A42B0FBF3F006D2054B40F6C50100
:101E2000044A054819F0ECFE10BD00BFC7EE0100E2
:101E30003FEE0100B0EE010044EE010000487047A3
:101E400094B5002008B511F063FA08BD10B592B042
:101E50000420FFF7CBFF14220446002101A81AF04A
:101E6000F3F83022002106A81AF0EEF801A807F0D6
:101E700005F9012301A919488DF8043007F026F966
:101E800004234FF0004216498DF818304FF4803388
:101E90001248CDE9072303F10133124A03F102236B
:101EA0000993114BB2FBF4F2CDE90A131E23002172
:101EB0008DF83030A023534306AA0D9341F6846376
:101EC000CDE90F3340F20123ADF84430234607F04B
:101ED000BBF9B0FA80F0400912B010BD00400D40CF
:101EE0001212780F00CA9A3B2A2A463C7FB56846F0
:101EF00003F086FC074B694607480093074B0193A4
:101F0000074B0293074B039303F0C0FD07B05DF846
:101F100004FB00BFD4B400200000444004B50020FE
:101F200034B5002064B5002010B5E4B04FF49E72C3
:101F3000002115AC20461AF087F81420FFF756FF51
:101F40004FF4003330212060A3600223009402A8E4
:101F5000E38140F2033323820C23E3744FF40063E4
:101F6000C4E909334023E3622023C4E90D13074C7D
:101F7000019405F0BDFB02A9204605F0FFFA0449D3
:101F8000684602F06FFA64B010BD00BF00C00C409C
:101F900094B5002038B5044611F0CAF902F0DEF815
:101FA00000F056FB01F0A8FD0CB101F099FDFFF720
:101FB0004DFF10B90B481AF0A5FE0B4D0B4C0C4809
:101FC0000C4A641B0C49121A1AF016F8224600211A
:101FD00028461AF039F8FFF789FFBDE83840FFF7C7
:101FE000A3BF00BF92EE0100401A018180820781E9
:101FF0000C1A01810C1A0181608402004B78C00127
:102000008A781B02013A03F4E063D2B213430A78E0
:10201000002A0CBF00224FF080721343034A135072
:10202000BFF34F8FBFF36F8F704700BF0000CC40EE
:102030002DE9F743EC4C00232046ADF804308DF831
:10204000063004F0D9FEE94BE94AD3F80019914271
:10205000224640F0D882D3F81039DBB20B2B40F087
:10206000D282636923F000536361636823F4F853F9
:1020700043F4B0536360A368002BFCDADB4BDD4E06
:10208000D3F87038DB48DA06C3F300114ABF0022E8
:102090000122114606F022FF0121304606F09CFE87
:1020A0000121304606F0DEFE022004F00FFAD6F8D9
:1020B000C03043F00203C6F8C03004F0EBFA336DD1
:1020C00043F002033365336943F00203336133693C
:1020D00043F080733361336A43F010033362336A31
:1020E0005B00FCD50024012501A9022720468DF8BC
:1020F00005408DF80650FFF781FF01A908208DF8F3
:1021000005404FF006088DF80650FFF777FFBA48F4
:102110004FF0180903F0B6FEB84804F07DF9B8484E
:1021200003F026FF21461B22022003F0B3FF1322F7
:102130002946022003F0AEFF02211822084603F0D0
:10214000A9FF20220321022003F0A4FF04F04EF88F
:1021500021460D22032003F09DFF11222946032072
:1021600003F098FF20220221032003F093FF0321B4
:102170001622084603F08EFFD6F81032A14823F04D
:102180000803C6F81032042604F0C4F829460520D6
:1021900004F07CF804F01AF920460DEB06018DF8E6
:1021A00005608DF80650FFF729FF0DEB0601384654
:1021B0008DF805608DF80670FFF720FF03230DEB07
:1021C000060130468DF805808DF80630FFF716FFC2
:1021D0000DEB060105208DF805408DF80650FFF740
:1021E0000DFF07230DEB060140468DF806608DF8C4
:1021F0000530FFF703FFF0230DEB060108208DF8F3
:1022000005408DF80630FFF7F9FE0DEB06010E20B4
:102210008DF805408DF80650FFF7F0FE0DEB060136
:102220000F208DF805408DF80690FFF7E7FE0DEBC7
:10223000060110208DF805408DF80690FFF7DEFEB0
:102240000DEB060111208DF805408DF80650FFF7C3
:10225000D5FE0DEB060112208DF805408DF80650D5
:10226000FFF7CCFE0DEB060113208DF805408DF82D
:102270000650FFF7C3FE0DEB060119208DF805404F
:102280008DF80650FFF7BAFE0DEB06011A208DF807
:1022900005408DF80650FFF7B1FE0DEB06011B203F
:1022A0008DF805408DF80650FFF7A8FE0DEB0601EE
:1022B0001C208DF805408DF80650FFF79FFE0DEBB2
:1022C00006011D208DF805408DF80650FFF796FE9B
:1022D0000DEB06011E208DF805408DF80650FFF726
:1022E0008DFE0DEB06011F208DF805408DF8065080
:1022F000FFF784FE0DEB060120208DF805408DF8D8
:102300000650FFF77BFE0DEB060121208DF80540FE
:102310008DF80650FFF772FE0DEB060122208DF8B6
:1023200005408DF80650FFF769FE0DEB06012320EE
:102330008DF805408DF80650FFF760FE0DEB0601A5
:1023400024208DF805408DF80650FFF757FE0DEB61
:10235000060125208DF805408DF80650FFF74EFE4A
:102360000DEB060126208DF805408DF80650FFF78D
:1023700045FE0DEB060127208DF805408DF806502F
:10238000FFF73CFE0DEB060128208DF805408DF887
:102390000650FFF733FE0DEB060129208DF80540AE
:1023A0008DF80650FFF72AFE0DEB06012A208DF866
:1023B00005408DF80650FFF721FE0DEB06012B209E
:1023C0008DF805408DF80650FFF718FE0DEB06015D
:1023D0002C208DF805408DF80650FFF70FFE0DEB11
:1023E00006012D2010E000BF0080CA4000C0CA4096
:1023F0006959AC570040C84058F10100ECF30100A6
:10240000F8F3010060F101008DF805408DF80650E9
:10241000FFF7F4FD0DEB06012E208DF805408DF839
:102420000650FFF7EBFD0DEB06012F208DF8054060
:102430008DF80650FFF7E2FD0DEB060130208DF818
:1024400005408DF80650FFF7D9FD0DEB060134204D
:102450008DF805608DF80660FFF7D0FD0DEB0601E5
:1024600035208DF805408DF80650FFF7C7FD0DEBC0
:10247000060136208DF805408DF80650FFF7BEFDA9
:102480000DEB060137208DF805408DF80650FFF75B
:10249000B5FD0DEB060138208DF805408DF806508E
:1024A000FFF7ACFD0DEB060139208DF805408DF8E6
:1024B0000650FFF7A3FD0DEB06013A208DF805400D
:1024C0008DF80650FFF79AFD0DEB06013D208DF8C3
:1024D00005408DF80650FFF791FD0DEB06013E20FB
:1024E0008DF805808DF80670FFF788FD0DEB06016D
:1024F00040208DF805408DF80650FFF77FFD0DEB6D
:10250000060141208DF805408DF80650FFF776FD55
:102510000DEB060142208DF805408DF80650FFF7BF
:102520006DFD0DEB060143208DF805408DF806503A
:10253000FFF764FD0DEB06014C208DF805408DF88A
:102540000650FFF75BFD3A4B3A4C1A6822F007023F
:102550001A601A6822F0380242EA09021A601A6800
:1025600022F0C0021A605A6822F003025A609A6888
:1025700022F003029A60DA6822F49F6222F00702D6
:10258000DA601A6922F002021A615A6922F0050221
:1025900032435A615A6922F002025A619A6922F062
:1025A00002029A619A6922F001029A619A6D22F000
:1025B00001029A65DA6D22F00102DA651A6E22F0E4
:1025C00001021A665A6E22F001025A669A6E22F0D1
:1025D00001029A66DA6E22F00102DA662368164A70
:1025E000C3F30223D05C03F0CBFF2368DBB22B44A0
:1025F0009842B0FBF3F215D2104B40F6C501104AD9
:10260000104819F0FDFA536923F0005353615368E1
:1026100023F4F85343F4A85353600B4A9368002BF8
:10262000FCDA2BE5094B1A6003B0BDE8F08300BF6C
:1026300000400E400000CC4074F101003FEE01006C
:102640003FF1010044EE01000080CA4004800020F8
:10265000FFF7EEBC104642B100231373536833B149
:102660001B6823B10A460221184703207047012046
:102670007047104642B100235373536833B11B684F
:1026800023B10A46012118470320704701207047F3
:102690002DE9F043044687B018B9012007B0BDE822
:1026A000F083837B002BF8D042689268517999427D
:1026B000F3D303F1005312680C2740F6024C013BA0
:1026C00002EBC30612F8335000239D42E5D907FB05
:1026D00003F270688118825A62453BD10D7A00235B
:1026E0009D422DD80026CB782374002ED5D000250E
:1026F0000120DFF870802F46DFF86C90A6603379F8
:10270000AB42CBD90623B2688DF808706B43D11861
:10271000D25C8DF80620D2094B88ADF804304B7896
:102720008DF8073018D0022B02D12773CDF80C900A
:1027300003AA01A920680135049407F0A5FDDEE78E
:102740001A01486800EB0316805CE27B9042CAD015
:102750000133C5E70133B8E7022B04BF6773CDF837
:102760000C80E5E77326000055260000836870B5ED
:10277000044693B1002501200626A3681A799542E4
:1027800002D30023A36070BD9A6806FB05F320689E
:102790000135D15C07F097FDEFE70120F3E700007A
:1027A00070B50A4C0E46154623685BB9214601F008
:1027B0000FFD30B923683BB14FF47F436660E3817E
:1027C0002C6070BD0220FCE70320FAE70000002027
:1027D00010B5044630B1FFF7C9FF0023C4E9003348
:1027E000E38110BD0320FCE77FB504461546002AAF
:1027F00060D000285ED0CBB2013B032B54D8DFE879
:1028000003F01E02064000238373012414E0436892
:10281000002BFAD02A78837B9A42F6D0FFF7A6FFE6
:102820002B782046A3730023E373FFF731FF0446A0
:1028300010B1214807F094FA204604B070BD2B680F
:10284000227C197998889142DFD12E1DADF80800BD
:102850005888009605F10806ADF80A00287B019615
:102860008DF80C005B78222B07D163686A460B2138
:1028700020461B6898470446DEE7104807F070FAC8
:10288000C3E74368002BC0D02D88037CB3EB152F22
:10289000BBD1EDB2C37BAB42B7D0FFF767FF204699
:1028A000E573FFF7F5FEE6E70A460548054907F038
:1028B00057FAAAE70324BFE704F401001EF401005D
:1028C00050F4010063F4010038B5044648B1057BBB
:1028D0004DB901202073206807F0C2FC00B12573B8
:1028E00038BD0320FCE70220FAE738B5044648B1BA
:1028F000457B4DB901206073206807F0B7FC00B13B
:10290000657338BD0320FCE70220FAE72DE9F043A8
:1029100090F8943087B004461BB9012007B0BDE899
:10292000F0834268926851799942F6D31268002A7E
:10293000F3D003F100530C27013B02EBC30612F85E
:10294000335000239D42E8D907FB03F270688118D9
:10295000825C082A2CD10D7A00239D421DD80027C5
:10296000CB7884F89530002FD7D000260120DFF8EF
:102970008C803546DFF88890A7603B79B34219D840
:102980000123E560C4F88450C4F8883084F88C5082
:1029900084F88F5084F89650C0E71A01486800EB1D
:1029A0000317805C94F893209042D9D00133D4E788
:1029B0000133C7E70623B9688DF808507343013621
:1029C000CA1810798DF80900CB5C20688DF80630A4
:1029D0005188ADF8041001A9527804948DF80720AD
:1029E000DA0903AA15BF84F8913084F89230CDF843
:1029F0000C90CDF80C8007F047FCBEE711300000CA
:102A0000552E0000836870B5044693B1002501205F
:102A10000626A3681A79954202D30023A36070BDED
:102A20009A6806FB05F320680135D15C07F04BFC82
:102A3000EFE70120F3E70000F8B5214C0F461646FA
:102A40002568002D3AD104F198032146A36104F1D1
:102A5000B803E36104F1C803236204F1DC03E36318
:102A600004F1E403236404F1F003236501F0B0FBF7
:102A700030B184F8945084F89350C4E90055F8BDFF
:102A8000236833B9606084F8940084F893000320CD
:102A9000F5E7FF23702284F8940084F89330236ACA
:102AA000606167601A700A229870DA71187358733F
:102AB00084F88D0084F88E003460E0E70220DEE7C1
:102AC0001400002010B5044648B1FFF79BFF002317
:102AD000C4E9003384F8943084F8933010BD0320A7
:102AE000FCE7F0B504468FB01646002A00F06F816F
:102AF000002800F06C81C9B20139052900F26B8110
:102B0000DFE811F034010600430067008C00BC00D0
:102B1000002301AA052180F8943043681B68984778
:102B2000019B0546002B00F05481013B01AE4FF0A4
:102B3000010C04F1440E84F89030B3681BB3736841
:102B40000BB3331D0EEB0C170FCB87E80F0094F877
:102B500090205FFA8CF39A4205D30CF1010C1036E9
:102B6000BCF1040FE9D1226A702313700A23D371D8
:102B7000002393701373537384F88D3084F88E3070
:102B800028460FB0F0BD0125E1E74368002B00F0B7
:102B9000228190F8943012789A4200F005810BB1AE
:102BA000FFF730FF3378204684F89430002384F810
:102BB0009330FFF7ABFE05460028E1D11F23A26941
:102BC00094F89210206807F051FB012384F88D30AF
:102BD000D6E74368002B00F0FE80168890F8953009
:102BE000B3EB162F40F0F780F6B290F89330B34273
:102BF00000F0DA80FFF706FF2046FFF787FE054664
:102C000048B91F23A26994F89210206807F02EFBA0
:102C1000012384F88D3084F89360B1E74368002B7A
:102C200000F0D9808368002B00F0D58090F88630C2
:102C30007BB9117890F891200120914207D184F856
:102C4000860084F88E302068317807F073FB0546E3
:102C500000E0012594F88730002B91D1317894F869
:102C6000922091428CD1012284F88D30206884F822
:102C70008720317807F05EFB054681E74368002B2B
:102C800000F0A9808368002B00F0A58090F889509F
:102C9000012D3FF475AF90F88650012D40D1127888
:102CA00090F891309A4209D1002380F8863080F85C
:102CB0008E300068317807F04EFB054694F8873077
:102CC000012B0ED1327894F892309A4209D1002328
:102CD000206884F8873084F88D30317807F03BFB2A
:102CE000054694F88F30023B012B29D894F88A309E
:102CF000012B17D1B4F88630002B7FF441AF94F844
:102D00008D202068012A94F8921084F88A3025D109
:102D100084F88D3007F0AEFA002384F88F302FE767
:102D20000125CBE794F88E302068012B94F89110A0
:102D30000CD184F8963007F09DFA002384F88F3088
:102D400094F88A30012B7FF41BAFD3E70D23E2699F
:102D500007F086FA012384F88E30EEE71F23A2697C
:102D600007F084FA012384F88D30D5E713681A78C8
:102D700002F01F05012D2ED190F895001979884297
:102D80007FF4FEAE5978FE2903D0FF290ED0052529
:102D9000F6E659880029FAD1DB88012BF7D1120613
:102DA000F5D59034C6E901450025E9E659880029A2
:102DB000EDD1DB88002BEAD11306E8D440F20112F2
:102DC000A4F8885084F88A50A4F88620ECE70325FC
:102DD000D6E60425D4E60125D2E630B5036985B0F0
:102DE000002504460093836902955A7BC36800EB73
:102DF00002118DF80C20B3F5803F6A46C96D28BFDB
:102E00004FF480338B4294BF0193019104214368B6
:102E10001B689847A36922695B7B94F8911004EBC7
:102E200003135B6D9A4206D22068DDE9013207F098
:102E300017FA05B030BD0123206884F88B5084F860
:102E40008630022384F8855084F88F3007F072FAB8
:102E50002846EEE77FB54B6814460E465A1C2CD127
:102E600094F88530A3B163681D688DB1A269D37BE6
:102E700003F07F03282B0BD1002309682046029121
:102E8000012101930093537B6A468DF80C30A847CB
:102E900094F89650012D03D00125284604B070BD4A
:102EA0000023E26994F8911084F896300D2320688D
:102EB00007F0D6F9A4F88E50EFE7E26894F88B504B
:102EC00093429CBFD21AE260012D0CD1002394F8EA
:102ED0009110206884F88B3084F8865084F885300F
:102EE00007F028FAD9E794F88520BAB90D2BD3D189
:102EF0000B681968264B9942CED1012584F88E20A3
:102F00001F23A26994F89210206884F8885007F073
:102F1000ADF984F88D50C0E701252AE06268156894
:102F2000002DB9D001933368029323690093A369FC
:102F30005A7B8DF80C20DB7B03F07F03282B03D119
:102F40006A4601212046A847E368002BE4D0A36924
:102F500020465A7B736804EB0212926DB3FBF2F2C7
:102F6000236913442361FFF738FFE3680546002B0C
:102F700093D10023E26994F8911084F885300123FD
:102F8000206884F88E300D2307F06AF985E700BFCA
:102F90005553425330B5036985B00025044600936C
:102FA000836902955A7BC36800EB02118DF80C20EF
:102FB000B3F5803F6A46096E28BF4FF480338B42D9
:102FC00094BF01930191032143681B689847A3694B
:102FD00022695B7B94F8921004EB03135B6D9A42B9
:102FE00006D22068DDE9013207F040F905B030BDB6
:102FF0000123206884F88C5084F88730022384F8F9
:10300000845084F88F3007F095F92846EEE70000E9
:103010007FB514464A680E46531C2CD194F8843070
:10302000A3B163681D688DB1A269D37B03F07F03F0
:103030002A2B0BD10023096820460291022101931B
:103040000093537B6A468DF80C30A84794F88D5056
:10305000002D40F0AB81B4F886304BB91F23A26934
:1030600094F89210206807F001F9012384F88D305C
:10307000284604B070BDE3689A429CBF9B1AE36087
:10308000A369DB7B03F0BF03152B06D163681B68C4
:103090001BB100220B212046984794F88C30012B5D
:1030A0000CD1002594F89210206884F8873084F8B9
:1030B0008450A4F88C5007F03DF9D9E794F8845077
:1030C000002D37D07368019333680293236900930E
:1030D000A3695A7B8DF80C2062681568CDB1DB7B43
:1030E00003F07F032A2B03D16A4602212046A8471A
:1030F000E5688DB1A36920465A7B736804EB021220
:10310000926DB3FBF2F2236913442361FFF742FF90
:103110000546E368002BABD1002384F884300D23EF
:10312000E26994F89110206807F09AF8012384F876
:103130008E309DE794F88830002B00F01E81736874
:103140001F2B40F01A81A369994A1968914240F0F7
:1031500014815E7B16F0F00F40F00F81997B11F027
:10316000E00240F00A8194F890000130864280F03D
:10317000048101390F2900F20081E1698D4884F84A
:103180008D20E260086058688A60486084F8882072
:1031900093F90C009E680028197B02DB321E18BFD1
:1031A0000122002884F8842008DA3EB1012094F836
:1031B000862084F8850022B1054659E7002284F86C
:1031C0008520DB7B032B04D0226A002090701073D3
:1031D0005073CA092F2B666284F8392050D8112BFE
:1031E0000CD8032B00F09480042B00F09D80002B62
:1031F00000F09280204600F039FC57E0123B1D2B76
:10320000F8D801A252F823F0A7320000F5310000EF
:10321000F531000039330000F5310000F5310000D0
:10322000F5310000F53100008F3200005933000005
:10323000F53100004933000021330000F531000072
:10324000F5310000F5310000F53100004133000098
:10325000F531000031330000F5310000F531000098
:1032600009330000F53100009F320000F531000005
:10327000F5310000F5310000F53100005133000058
:103280009E2B55D007D8552B56D05A2BB2D120465D
:1032900000F054FA0AE0A82B36D0AA2BAAD1204677
:1032A00000F0FCF902E0204600F0AFF9236A054681
:1032B0009B7843B1E3691A7B2AB9A269D27B032ABE
:1032C0001CBF01221A73052D0ED194F88430012BF6
:1032D00046D194F887200AB984F88C30002384F80A
:1032E0008430022384F88F3094F88430002B7FF4EC
:1032F000BFAE94F88530002B7FF4BAAE94F88B30D3
:10330000002B7FF4B5AE0AE7204600F0A2F9CDE726
:10331000204600F059F9C9E7204600F0E4F9C5E776
:10332000204600F03CFBC1E7204600F019FBBDE75A
:10333000204600F053FAB9E7204600F023FAB5E73B
:10334000204600F093FAB1E7204600F049FBADE7D4
:10335000204600F0E9F9A9E7204600F062FBA5E766
:1033600094F88530012BBCD194F886200AB984F8F2
:103370008B30002384F88530B3E794F892102068EE
:1033800006F0D8FF94F89110206806F0D3FF0023D0
:1033900084F88D30012384F88F3040F20113A4F8B3
:1033A00086304FF48073A4F8883061E600255FE62C
:1033B000555342435553425330B484690129647BC9
:1033C00000EB0414A56D5468126804FB05F4026157
:1033D000C46002D130BCFFF700BD30BCFFF7DABDDE
:1033E000D0E9093270B504464BB9C1698B6012B996
:1033F00010460A7370BD022218460A73FAE790F865
:10340000391000296ED0C56942B9AB60134694F8F3
:103410009110E26A206806F023FF0FE090F83A105E
:10342000002954D0934290F8381013D99B1A0129DF
:10343000AB60EBD100F13002FFF7BEFFE36908B9E2
:1034400018735CE001221A730322236A9A70112216
:103450001A7354E04FF00002AA6010D1012907D17D
:1034600000F13002FFF7A8FFE36940BB1873C1E722
:10347000C26A90F89110006806F0F2FEF4E70129A4
:1034800016D18269527B00EB0212966DB3FBF6F205
:1034900006FB1233426300F13002AB60FFF78CFF92
:1034A000E36960B994F83820012ADFD102220CE0E8
:1034B000C26A90F89110006806F0D2FEF0E701228F
:1034C0001A730322236A9A7011221A7392E7C26A4E
:1034D000AB600B4690F89110006806F0C1FEE369FE
:1034E0000222B5E76AB990F89210006806F022FF50
:1034F000636AE26993600123137384F887300520BF
:1035000078E790F83A1059B190F89210006806F0F8
:1035100011FFE369626A9A6002221A730123ECE7E1
:103520009342C56990F8386019D99B1A012EAB6097
:103530000DD100F13002FFF73FFFE36900283FF4AF
:103540007FAF01221A730322236A9A7080E7134621
:1035500090F89210C26A006806F088FEEDE7A96054
:1035600016D1012E0DD100F13002FFF725FFE369DE
:1035700000283FF47BAF01221A73236A03229A705A
:10358000A3E7C26A90F89210006806F06FFEEEE7BB
:10359000012E12D18269527B00EB0212966DB3FBB1
:1035A000F6F206FB1233426300F13002AB60FFF724
:1035B00003FF0028E1D1E36974E7C26A90F8921032
:1035C000006806F053FEF4E710B5036A86B00446BF
:1035D0000493836903F10F025B7B8DF81430436819
:1035E00001921B6813B101AA0F21984712232046AC
:1035F000A362012384F83A30236AE362002384F84B
:103600003830FFF7EDFE06B010BD10B5036A86B086
:1036100004460493836903F10F025B7B8DF8143039
:103620004368019200221B68CDE9022213B101AA6E
:1036300008219847029B2046A362012384F83A3070
:10364000039BE362002384F83830FFF7C9FE06B01D
:1036500010BD826910B4D37BD2F81110282B09BA9F
:1036600015D1D38A5BBA9BB2012480F83A40527BD1
:1036700000EB0212926D80F838405A435DF8044B1B
:1036800082620022C0E90C13C262FFF7A9BEA82B18
:103690000ABFD2F8153000231BBAE5E7826910B4DF
:1036A000D37B0024D2F811102A2B09BA14D1D38A63
:1036B0005BBA9BB280F83A40527B00EB0212926DEB
:1036C0005A43C0E90A24012280F838205DF8044BEF
:1036D000C0E90C13FFF784BEAA2B0ABFD2F815303D
:1036E00023461BBAE6E730B5036A87B00446049365
:1036F000836903F10F025B7B019201228DF8143084
:10370000002380F83A208362C36280F83830FFF7E4
:1037100067FE636805461B681BB101AA07212046A6
:103720009847284607B030BD00220121826280F808
:103730003A10C26280F83820FFF752BE10B5036A13
:1037400086B004460493836903F10F025B7B8DF816
:1037500014304368019200221B68CDE9022213B1A4
:1037600001AA09219847029B2046A362012384F8FD
:103770003A30039BE362002384F83830FFF730FED1
:1037800006B010BD10B5036A86B004460493836981
:1037900003F10F025B7B8DF8143043680192002225
:1037A0001B68CDE9022213B101AA0A219847029BA6
:1037B0002046039AA3620023E26284F83A3084F838
:1037C0003830FFF70DFEA3691B7CDB0704D5236AA5
:1037D00005229A7024221A7306B010BD836930B591
:1037E00085B05D7B002304468DF80C50CDE9013394
:1037F00043681B6813B101AA1021984794F89030D0
:10380000AB423FBF236A052200259A70029931B16D
:10381000019B13B304EB0515C5E915310821A06917
:10382000437BC07B0533252804EB03135A68A16250
:1038300002F1FF3212BA12D1E16B0A609B681BBA27
:103840004B6001232046E16284F83A30002384F87B
:103850003830FFF7C5FD05B030BD1946DFE7216CF4
:103860004A609B681BBA8B60EBE7000070B53B4B6E
:10387000044688B01868A36900905D7B0023CDE9F9
:10388000053363688DF81C501B681BB105AA112114
:103890002046984794F89030AB423FBF236A0522F8
:1038A00000259A70069B2BB1059A1AB104EB0515F9
:1038B000C5E91523A36994F84C50997DDA7D42EA55
:1038C0000121002D48D06269002A14BF0220032084
:1038D0005B7B002D4FEAC00503F105038DF8035013
:1038E00004EB03135A689E6812BA33BA0392049326
:1038F00014BF4FF000734FF0807301920C223343DA
:1039000002EBC0021BBA8A42029328BF0A46236D0B
:103910009DF8001019709DF80110236D59709DF8E5
:103920000210236D997001A9236DDD70042311F835
:10393000015B206DC55401330C2BF8D101232046C7
:10394000A26284F83A30236DE362002384F83830B1
:10395000FFF746FD08B070BD2846B9E7DAEB010075
:1039600070B5002501260446856280F83A60C5627C
:1039700080F83850FFF734FDE3691A7B022A0DD036
:10398000A269127C02F01F02172A1DBF05221E73B6
:10399000236A1D731EBF9A7024221A7370BD30B53E
:1039A000036A87B004460493836903F10F025B7BCB
:1039B000019201228DF81430002380F83A208362AE
:1039C000C36280F83830FFF70BFD636805461B685B
:1039D0001BB101AA0C2120469847284607B030BDEC
:1039E00030B5036A87B004460493836903F10F027C
:1039F0005B7B019201228DF81430002380F83A207D
:103A00008362C36280F83830FFF7EAFC63680546DA
:103A10001B681BB101AA0D2120469847284607B014
:103A200030BD30B5036A87B004460493836903F15F
:103A30000F025B7B019201228DF81430002380F885
:103A40003A208362C36280F83830FFF7C9FCE3692B
:103A500005461B7B022B06D063681B681BB101AABD
:103A60000E2120469847284607B030BD10B4C169E2
:103A7000002201248A600C730521036A8262997016
:103A800020215A7319735DF8044BFFF7A9BC00009D
:103A900010B50E4C0E4BD4F8002FC2F30222134483
:103AA00093F8F00002F06CFDD4F8003F0246DBB260
:103AB00001339A42B0FBF3F006D2064B40F6C50143
:103AC000054A064818F09CF810BD00BF0000CC4025
:103AD0005BF501003FEE010034F5010044EE01000A
:103AE00010B5FFF7D5FF012203464FF4E131062060
:103AF000BDE8104006F010B8984B99495A6908463D
:103B000012F4003F2DE9F041964D2E460ED0BFF342
:103B10004F8FBFF36F8F5A6922F400325A6100222F
:103B2000C3F85022BFF34F8FBFF36F8F8B4A536997
:103B3000DB0324D50023C2F88430BFF34F8F5369D1
:103B400023F480335361BFF34F8FD2F8803043F6B4
:103B5000E07CC3F3C907C3F34E335B0103EA0C08EF
:103B60003C4648EA847E013CC2F874E2F9D2203B2C
:103B700013F1200FF2D1BFF34F8FBFF36F8FBFF35D
:103B80005F8F764A536A23F480335362764B5A68C8
:103B900022F001025A60BFF34F8FBFF36F8F1022E4
:103BA000724CDA60724A1A61724ADA60724A1A61B9
:103BB000DC601A611322714CDA60714A1A611422B6
:103BC000DA60704A1A61DC601A616F4ADA606F4A23
:103BD0001A616F4ADA606F4A1A616F4ADA606F4A97
:103BE0001A616F4ADA606F4A1A61002225FA02F4FC
:103BF000012C0CD84AB36C4CB4FBF5F705FB174508
:103C00003DB16A4BB1216A4A6A4817F0F9FF0132A7
:103C1000ECE701259540B54203D0674BB221644AD9
:103C2000F2E7042A03D8654BB321614AECE7013A75
:103C300024F01F04520044F01A0402F03E02DC603B
:103C400042F0427242F001021A615D4A5D4CDA6054
:103C50005D4A1A615D4ADA605D4A1A615D4ADA605E
:103C60005D4A1A61DC601A61002221FA02F4012C1B
:103C70000AD82AB3594CB4FBF1F501FB154129B11F
:103C8000574BD5214A4ABFE70132EEE70121914067
:103C9000814203D0534BD621454AB5E7042A03D8C5
:103CA000464BD721424AAFE7013A44F01F04520085
:103CB000DC6002F03E0242F0447242F001021A61FE
:103CC000BFF35F8F05225A60244B5A6A42F4803258
:103CD0005A62BFF34F8FBFF36F8F5A6912F480326D
:103CE00023D1C3F88420BFF34F8FD3F8802043F64D
:103CF000E074C2F3C900C2F34E32520102EA040674
:103D0000014646EA81750139C3F86052F9D2203A7A
:103D100012F1200FF2D1BFF34F8F5A6942F4803273
:103D20005A61BFF34F8FBFF36F8F0C4B5A6912F478
:103D3000003211D1BFF34F8FBFF36F8FC3F8502202
:103D4000BFF34F8FBFF36F8F5A6942F400325A614D
:103D5000BFF34F8FBFF36F8FBDE8F08100ED00E040
:103D6000002000000080000090ED00E012000060E4
:103D70003F001000110000803900100315000020E2
:103D80003B00100323000303160020202700030339
:103D90001700302025000303180000302F00030611
:103DA00019000080330003030000002079F40100B3
:103DB0004BF5010091F40100C9F40100E4F40100A5
:103DC0001B0000401E0080412F0010031C0000411A
:103DD000290010031D0040412700100300002C2083
:103DE000EBF401000FF50100C64A46F22063D158FA
:103DF000C9072DE9F0410BD40121D150BFF34F8FFA
:103E0000BFF36F8F02F5CC4230321368DB07FCD56D
:103E10000A22BD4B052402251A60042143F8042C14
:103E2000012043F8082C4FF00C0C43F80C2C1527FC
:103E3000B64BB74E1C601D6443F8044CDD63B54BB4
:103E4000DFF80CE31960C3F8F0030023DFF8048304
:103E50003360B14E37600327C6F840C0A6F50B2685
:103E6000A6F6EC763260C6F840C046F8200C376201
:103E700046F81C0CC6F894307762A84E3060C6F83D
:103E8000FC520E443060C6F8E4520E443060C6F86E
:103E9000E4520E443060C6F8E4520E443060C6F876
:103EA000E4520E443060C6F8E4520E443060F83EEE
:103EB000C6F8FC00C6F80001C6F80401C6F80801FF
:103EC000C6F80C01C6F8E45335607560C6F8C40343
:103ED000443E326072603266C6F84412C6F8481238
:103EE000C6F8A4521026CEF80060CEF87830CEF88E
:103EF0000460CEF874304FF0200EC8F800E0C8F827
:103F000004E0DFF854E2CEF80030CEF8B4348E444A
:103F1000CEF800300EF5107ECEF86C32CEF80050A0
:103F2000CEF80450AEF5407ECEF80070CEF80470A6
:103F30000E27CEF84472CEF848720EF58E7E784F7A
:103F40003960A7F5BA77C7F87811C7F8B833C7F85A
:103F5000BC33243747F8243C47F8203C47F81C3C46
:103F600047F8183C47F8143C47F8103C47F80C3C1D
:103F700047F8083C47F8043C3B607B60BB60FB6053
:103F80003B617B61BB61FB613B627B62BB62FB624D
:103F90003B637B63BB63FB6340373B607B60BB6021
:103FA000FB603B617B61BB61FB613B627B62BB622F
:103FB000FB623B637B63BE63C7F88C301127CEF88E
:103FC0000070CEF80470CEF8A8030EF1080ECEF8FB
:103FD0000070CEF880038E44CEF80070CEF88003D7
:103FE0008E44CEF80070CEF880038E44CEF8007078
:103FF0004C4F38604C484D4F0260A0F53D70C0F802
:10400000F822C0F8FC22C0F80023C0F80423C0F84E
:104010000823026040F8342C40F8202C3C60444FC8
:1040200039607960B960F96039617961B961F961C4
:104030003962796247F8041C47F8081C40F8202CC4
:10404000C0F88060C0F88460C0F88860C0F88C60F8
:10405000C0F89060C0F894608267C0F81421C0F87E
:1040600010213448046034480260C0F8B420C0F81D
:10407000B8201222C0F8A420C0F8A8201322C0F84B
:10408000AC20C0F8B0202D4A1160903242F88CCCA0
:1040900042F8881C42F8841C42F8801C42F87C1CC0
:1040A00042F8983C5360136002F53A0202F53C4234
:1040B0001560234A1360C2F8B4C0C2F8B8C0C2F891
:1040C000A430C2F8A830C2F8AC30C2F8B0301D4BF2
:1040D0001C6043F80C4C1C4B1C605C6043F8684C43
:1040E00043F8644C43F8D44C43F8D04C43F87C4C30
:1040F00043F8804C154B1C60DC601C615C61BDE8C2
:10410000F08100BF0000CC40F8800E401840C9404C
:1041100058830E4014810E400C40C940E4810E408B
:1041200084810E4060850E4010840E402040C940BE
:1041300044810E403040C94098810E40E0830E40DB
:10414000DC830E402480C0408C810E401C80C04027
:104150001080C0405080C0406C810E40FFF744BECC
:1041600073B50024064601A80D460194FDF7D3FA65
:10417000074B1A68964206D101982B60FDF7DCFACE
:10418000204602B070BD0198FDF7D6FA0420F8E78A
:104190002801002037B50024054601A80194FDF749
:1041A000BAFA0A4B1A685AB19A7BAA4208D1019806
:1041B0009C73C3E90044FDF7BFFA204603B030BD4D
:1041C0000198FDF7B9FA0420F8E700BF28010020A4
:1041D00073B50024064601A80D460194FDF79BFA2D
:1041E000084A13684BB1927BB24206D101982B600A
:1041F000FDF7A2FA204602B070BD0198FDF79CFAC7
:104200000420F8E7280100202DE9F7430F46154662
:1042100022B90423184603B0BDE8F08301A9FFF7D3
:104220009FFF0028F5D1044601264FF00C08DFF867
:104230005890019BE0B25B681A7A824201D83346FB
:10424000E8E71B6808FB003083681B79012B15D059
:10425000022B15D0032B15D0042B0DD1032309EB12
:1042600003132A46394640689B6898470528034649
:10427000D0D0002808BF00260134DAE70023EEE79B
:104280000123ECE70223EAE7D4F7010073B50D46FA
:1042900001A904461646FFF763FF88B9012D08D12E
:1042A000019920460BF012FB019A02212046FFF7EC
:1042B000ABFF019B3246294620465B685B68984706
:1042C00002B070BD2DE9F74F07460C469046002A14
:1042D0005DD000295BD04B68002B58D0002301A88B
:1042E0000193FDF718FA2B4B01981E681D461EB36B
:1042F0009B7BBB4220D10124FDF71EFA204603B070
:10430000BDE8F08FDFF89490AF73C5F80890FDF723
:1043100013FA6C60A9F110021F49384605F02CFF12
:10432000044678B96B685FFA86F91B7A4B4510D85A
:104330002B68C8F80030E1E7002EE3D00224FDF737
:10434000FBF9DBE7286805F0F6FE3846FFF722FFA9
:10435000D4E70C23DFF848A04FF0000B03FB09F96A
:104360006B68196849448B681A799AF80C309A423C
:1043700004D1DAF800300A1D384698470BF1010BDA
:104380000AF1100ABBF1050FEAD10136CAE704248D
:10439000B4E700BF280100208D4200003801002052
:1043A000D4F7010070B586B00B78012506468DF86C
:1043B0000C3002230C4602928DF80D3040F20113AE
:1043C0000595ADF80E3001AB049302A9304603F019
:1043D00063FB58B96388A18805FA03F3019A39B1E0
:1043E000934314BF01230023002BEED106B070BD10
:1043F0001342F6E770B51E4686B00B7801250C46D1
:1044000002A98DF80C30022302928DF80D3040F293
:1044100009130595ADF80E3001AB049303F03CFB96
:1044200038B9A368019A1340E268934208BF054671
:10443000357006B070BD7FB500238DF80C1002A951
:10444000CDE9013303238DF80D304FF48673ADF8B9
:104450000E3001AB04930123059303F01DFB07B05D
:104460005DF804FBF8B50D46064628B9324B91219C
:10447000324A334817F0C4FB19B9324B92212F4A04
:10448000F7E7046804220021284617F0DDFD2E4BD3
:10449000706804F13C07218E28605980618EEB61C1
:1044A0009980616B94F820209960A16B1A70D96093
:1044B000214603F0A9F94FF480720021384617F025
:1044C000C3FD40F20641214A214BE1662149DFF854
:1044D00098E0C4F88C104FF401517068C4E90F23C0
:1044E00042F201431C4AC4E927E1C4E91323C4E9A9
:1044F00033231A491A4AC4F8DC100331C4E91723DC
:10450000184A4FF40053C4F8BC100021C4E93F23FB
:1045100040233A4603F0FAF973681A6842F0010240
:104520001A60186810F00100FBD1636AAB60A36ADF
:10453000EB60E36A2B61F8BD08F9010082F8010025
:1045400024F80100F9F80100B4B500200304100CB0
:1045500008308024D80418080F04C0041004180878
:104560009F0400041F04A0040204100C2DE9F04372
:104570009046826887B0C66951431F46002396F86B
:1045800000904D0004468DF80D304FF4847302A95D
:10459000006802958DF80C90ADF80E3003F07CFAAF
:1045A00010BB2A4631462068FFF7FCFEE0B9022323
:1045B00002A920688DF80D304FF4807302958DF8B4
:1045C0000C90ADF80E30CDE9048703F065FA58B9C8
:1045D0000DF107032A4631462068FFF70BFF18B993
:1045E0009DF8070080F0010007B0BDE8F0832DE9D9
:1045F000F043914687B0C669984600230446377851
:104600008DF80D3040F203138DF80C70ADF80E30BC
:10461000D0E9022500682A4401FB02F502A90295AF
:1046200003F03AFA80BB032302A920688DF80D300D
:104630004FF4837302958DF80C70ADF80E30CDE910
:10464000049803F029FAF8B94FF485738DF80D003A
:1046500002A9206802958DF80C70ADF80E3003F0B9
:104660001BFA88B92A4631462068FFF79BFE58B9E5
:104670000DF107032A4631462068FFF7BBFE18B943
:104680009DF8070080F0010007B0BDE8F083F0B5A9
:10469000836885B0C66904465943056937784D4338
:1046A00000683946FFF7C7FE00236D0069468DF8A4
:1046B000053040F20313206800958DF80470ADF8C2
:1046C000063003F0E9F990B940F205138DF80500C2
:1046D0006946206800958DF80470ADF8063003F047
:1046E000DBF920B92A4631462068FFF75BFE05B0AA
:1046F000F0BD10B5EFF3108472B6438902890BB197
:104700009A420ED052B901600023013248600B601A
:1047100041600281184684F3108810BD4368196017
:10472000F2E743F27A70F6E7EFF3108172B660B108
:1047300003896BB1013B02689BB2038103B94360FB
:104740000023536013680360104681F3108870479C
:104750001846FAE70068704710B50446C430FFF702
:10476000F9FF50B1A378012B07D1C268816804F129
:104770000C00BDE8104000F05FBB43F2215010BDBB
:10478000F7B50546FFF7E8FF002705F1D0063046EC
:10479000FFF7E0FF0446C4B9EFF3108272B66B680E
:1047A00082F310887BB19A686AB11869D968884227
:1047B00009D300929C601A69DC6901921CB1DA8A03
:1047C0006946186AA04703B0F0BD3046FFF7ACFF5A
:1047D000A368A760009323690193E3691BB1E28A90
:1047E0006946206A98473046FFF7B4FF0446D2E78F
:1047F00031B18378012B03D100210C3000F033BBA1
:1048000043F2215070472DE9F0470D46044600B9A8
:10481000FEE701B9FEE7EFF3108772B64A68D0F8F9
:10482000BC30D0F8B81013448B4280F09080D0F8A0
:10483000BC3043F22358D0F8B4002968184417F06C
:10484000DBFBD4F8BC306A681344C4F8BC3028E001
:10485000D4F8BC202E68501CC4F8BC00D4F8B400B6
:10486000F65C8654D4F8BC20D4F8B800824201D358
:10487000C4F8BC10D4F8BC60D4F8C02096420CD167
:10488000D4F8C0200132C4F8C020D4F8C02090422F
:1048900001D8C4F8C01043F2265801336A689A421E
:1048A000D6D8D4F8BC30D4F8B820D4F8C0601344BB
:1048B0009B1BB3FBF2F602FB163663680BB363680F
:1048C0009B68F3B16368DA6863681B699A420CD924
:1048D00063680021DB688A46626812699B1AB342EA
:1048E00028BF33468B4237D8F61A6368DA686368A4
:1048F0001B699A4205D863681B7D002B51D1626801
:104900009360616832462046FFF772FF76B100235C
:10491000C5E9003663684BB16368DB6933B163682E
:10492000424660682946DB69006A9847228848F653
:1049300041739A4207D1D4F8B82020466168013A01
:10494000921BFFF755FF87F31088BDE8F08700231F
:1049500043F223581946A1E7D4F8C0E0D4F80490F4
:104960006268D2F810C0D4F8B42012F80EE0D9F87A
:10497000082002F80CE0D4F8C020D4F8B8000132C6
:10498000C4F8C020D4F804C0DCF810200132CCF800
:104990001020D4F8C020824201D3C4F8C0A0013155
:1049A000A0E7636800222046DA82FFF7E9FEA8E765
:1049B0002DE9F0410E461746054600B9FEE701B95C
:1049C000FEE700F1C4084046FFF7C4FE0446B8B154
:1049D0004046FFF7A9FE2846FFF7BEFE7368E78250
:1049E0002361237D012B09D1214605F1D000FFF77A
:1049F00080FE2846BDE8F041FFF7C2BE0023A36059
:104A0000BDE8F081704700002DE9F8431E460446DA
:104A100000B9FEE701B9FEE702B9FEE7856905B90D
:104A2000FEE7406A224B9842FDD1012E02D1E36994
:104A3000002BFCD0EFF3108872B6A3682BB188F37B
:104A4000108843F22250BDE8F88305F1C409E26002
:104A5000A160236148462675FFF77CFE2146074684
:104A60004846FFF746FE88F3108847B12EB905F196
:104A70000C06E26823699A4207D80020E3E728463B
:104A8000FFF76AFE0028F1D0DDE7EFF305835BB1A5
:104A9000EFF3108772B6AB78012B02D1304600F0ED
:104AA000F8F987F31088E4E70120FFF7ABFFE0E7B0
:104AB0005457BBAA704700002DE9F341089D0E46EC
:104AC0001F46044600B9FEE701B9FEE702B9FEE75A
:104AD000806900B9FEE7616A514B9942FDD1012F0F
:104AE00002D1E369002BFCD0EFF3108872B6A16805
:104AF00031B188F3108843F2225002B0BDE8F08152
:104B0000012AE260A6602161277527D1D0F8BC2078
:104B1000D0F8C0309A4218D0D0F8C0202369D0F81D
:104B2000B4C003F1010EC4F810E01CF80220F254E6
:104B3000D0F8C0300133C0F8C030D0F8B830D0F869
:104B4000C0209A4201D3C0F8C010002D47D023697D
:104B500000202B60A06088F31088CEE7D0F8B8E082
:104B6000D0F8BC30D0F8C0C073442161A3EB0C0373
:104B7000B3FBFEFC0EFB1C338E469A4228BF1A463E
:104B80002369934211D3D0F8B830D0F8BC20D0F8C4
:104B9000C0101A44521AB2FBF3F103FB1122013B7D
:104BA00021469A1AFFF724FECFE7D0F8C030D0F89C
:104BB000B410D4F810C0CB5C06F80C30D0F8C0307C
:104BC000D0F8B8100133C0F8C030D0F8C0308B42F4
:104BD00001D3C0F8C0E0236901332361D0E7226923
:104BE000E3689A4210D3A56088F31088012F0FD193
:104BF000E3690BB9002080E722696946206A0192C7
:104C00002A4600969847F5E788F31088002FF1D1DF
:104C1000E26823699A42EDD90120FFF74BFFF7E7DD
:104C20004452AABB70B504460D4601B9FEE700B96F
:104C3000FEE70B6803B9FEE74B6803B9FEE74FF4E4
:104C40009272002117F000FA6B8923802B7AA370EF
:104C5000012B2A68C4F8B4206A68C4F8B82013D1BC
:104C600004F10C06E968304600F0C4F8054648B97E
:104C700022460749304600F000F9224605493046F1
:104C800000F001F9284670BD43F22155FAE700BF54
:104C9000B14900000748000038B50D46044600B988
:104CA000FEE701B9FEE7EFF3108272B683680133C5
:104CB000836082F3108848F6417302889A4202D1D9
:104CC0008861002038BD2C220021284617F0BCF94D
:104CD000014BAC616B62F4E75457BBAAF8B50C46C4
:104CE000054600B9FEE701B9FEE7028848F64173C0
:104CF0009A4202D188610020F8BDEFF3108772B6A6
:104D0000466866B941602C223146204617F09CF96E
:104D1000044B3046A561636287F31088ECE743F2E9
:104D20002250F9E74452AABB0123FFF76DBE0023CE
:104D300007B500930123FFF7BFFE03B05DF804FB46
:104D400010B500B9FEE7446A034B9C42FDD1C0E9AF
:104D50000712002010BD00BF5457BBAA10B500B900
:104D6000FEE7446A034B9C42FDD1C0E907120020D4
:104D700010BD00BF4452AABB13B5144602B9FEE7EA
:104D800042F6AC7399420FD1104600F027FA236F18
:104D900043B104F17A026946606F009201220192E8
:104DA0000022984702B010BD42F6AB739942F9D188
:104DB00092F86C30002BF5D00022636E84F86C20E2
:104DC000002BEFD0E16DA06E0091216E019169463C
:104DD000E7E7012200F17A0110B580F87820044657
:104DE00000F080F920B1002343F2215084F878309C
:104DF00010BD000070B504460E4601B9FEE700B9CB
:104E0000FEE700F0C1F80546002DFDD1B37A224639
:104E10000849204684F8793000F046F994F8793052
:104E2000012B04D12046BDE87040FFF7D2BF2846D1
:104E300070BD00BF794D000070B500B9FEE701B943
:104E4000FEE702B9FEE790F86C604EB90126C0E9B2
:104E5000171280F86C6000F083F90028FDD170BD56
:104E600043F22250FBE700B9FEE790F87930012BBE
:104E700001D1FFF7AEBF0020704700B9FEE7C0E9DF
:104E800019120020704700B9FEE7C0E91C1200208B
:104E9000704700B9FEE700F0CBB90000354B70B5A4
:104EA00053F8204034B9344B40F24711334A344868
:104EB00016F0A6FE334B53F82050284603F01EFE92
:104EC000820206462BD5284603F002FE830226D531
:104ED000E36823B3E1686269531C6361AB69180539
:104EE00007D423F4FD6323F005031B051B0D022BE0
:104EF0003CD1EB6903F07F038B54626923699A42CA
:104F00000DD34FF00261284603F0C5FD0023E36096
:104F1000636823B1A26842F6AC712046984732021A
:104F20001ED5284603F0D4FD030219D5A369BBB1F1
:104F3000A269236A591C2162D35CEB61226AE3698E
:104F40009A420DD34FF40001284603F0A4FD00233C
:104F5000A361636823B1A26842F6AB71204698470B
:104F600031462846BDE8704003F0D4BDEB69DBB2A2
:104F7000C2E700BFC4B5002092F80100C6F90100E5
:104F8000A5F8010060FA010070B50C4686B0054630
:104F900030B93A4B40F21D21394A3A4816F030FEFA
:104FA00021B9394B40F21E21354AF6E78B7B0C2B99
:104FB00004D9364B40F21F21314AEEE7344E56F801
:104FC000233023B9334B4FF408712D4AE5E701A88C
:104FD00003F02AFD6368226801A90193237A8DF802
:104FE0000830637A8DF80B30A37A003B18BF012399
:104FF0008DF81530E37A003B18BF01238DF814308B
:10500000237B003B18BF01238DF80E30637B003BF0
:1050100018BF01238DF80F3040F20113ADF81230A4
:10502000A37B56F8230003F00DFCA0B9A37B1A491B
:105030002B70E27B6A70194A42F8235031F9132031
:1050400031F81330002A0ADA03F00F03144A1A4425
:105050002023137601E042F6AF7006B070BD114C0C
:105060002025A11881F80053012103F01F035209E4
:1050700001FA03F344F82230EFE700BFF1F8010032
:10508000DEF90100A5F8010000F901000FF90100A7
:1050900060FA010058F9010094FA0100C4B500203B
:1050A000FCEC00E000E100E008B530B9094B40F24B
:1050B0003231094A094816F0A3FD4378012B04D187
:1050C000074B40F23631044AF4E7C0E901120020F0
:1050D00008BD00BFF1F80100EBF90100A5F80100DF
:1050E0009FF9010010B530B9164B4FF45071164AB4
:1050F000164816F085FD21B9154B40F24131124A90
:10510000F6E722B9134B40F242310F4AF0E74378F9
:10511000012B04D1104B40F246310B4AE8E7C4683A
:1051200064B902610D4B02784461C1604FF00261C5
:1051300053F8220003F096FC204610BD42F6AA70F8
:10514000FBE700BFF1F8010003FA0100A5F8010038
:1051500086F9010093F901009FF9010060FA01004E
:1051600010B530B9164B40F25B31164A164816F0AE
:1051700047FD21B9154B4FF45771124AF6E722B992
:10518000134B40F25D310F4AF0E74378012B04D115
:10519000104B40F261310B4AE8E7846964B9C2619F
:1051A0000D4B0278046281614FF4000153F8220034
:1051B00003F058FC204610BD42F6A970FBE700BF83
:1051C000F1F801001EFA0100A5F8010086F90100BE
:1051D00093F901009FF9010060FA010010B504463F
:1051E00030B90E4B40F292310D4A0E4816F008FDD0
:1051F0004378012B04D10C4B40F29631084AF4E776
:10520000C3684BB1094B4FF00261027853F822009A
:1052100003F041FC0023E360002010BDF1F8010021
:1052200036FA0100A5F801009FF9010060FA0100BB
:1052300008B530B9054B40F2DB31054A054816F098
:10524000DFFC0078BDE80840FFF728BEF1F8010058
:105250004BFA0100A5F80100012008B5FFF71EFE7A
:10526000BFF34F8F08BD022008B5FFF717FEBFF34D
:105270004F8F08BD032008B5FFF710FEBFF34F8F17
:1052800008BD042008B5FFF709FEBFF34F8F08BD26
:10529000052008B5FFF702FEBFF34F8F08BD0620BB
:1052A00008B5FFF7FBFDBFF34F8F08BD072008B51A
:1052B000FFF7F4FDBFF34F8F08BD082008B5FFF7D7
:1052C000EDFDBFF34F8F08BD10B506281FD8DFE8EE
:1052D00010F0070036007800C00008014C017A0188
:1052E000D048B1B1D0F8201821F48031C0F820188E
:1052F000D0F8201821F0FF010A43C0F82028C0F898
:105300003038D0F8003583F48033C0F80035002001
:1053100014E0D0F8203843F48033C0F82038D0F8B7
:10532000203823F0FF031A43C0F82028D0F80035B6
:1053300083F48033C0F80035D0F8400810BDB94878
:10534000F9B1D0F85048D0F8501804F4007421F4A2
:105350008031C0F85018D0F8501821F0FF010A43EE
:10536000C0F85028C0F86038D0F8503883F4807303
:10537000C0F85038D0F8503803F400739C42F9D08C
:10538000C5E7D0F85018D0F8503801F4007143F454
:105390008033C0F85038D0F8503823F0FF031A4358
:1053A000C0F85028D0F8503883F48073C0F85038D3
:1053B000D0F8503803F400739942F9D0D0F870084F
:1053C000BCE7984829B3D0F88048D0F8801804F496
:1053D000007421F48031C0F88018D0F8801821F0D2
:1053E000FF010A43C0F88028C0F89038D0F8803810
:1053F00083F48073C0F88038D0F8803803F40073E9
:105400009C42F9D0D0F8803823F48033C0F880383B
:105410007DE7D0F88018D0F8803801F4007143F4AB
:105420008033C0F88038D0F8803823F0FF031A4367
:10543000C0F88028D0F8803883F48073C0F88038B2
:10544000D0F8803803F400739942F9D0D0F8A0085E
:1054500074E7744829B3D0F8B048D0F8B01804F411
:10546000007421F48031C0F8B018D0F8B01821F0E1
:10547000FF010A43C0F8B028C0F8C038D0F8B038EF
:1054800083F48073C0F8B038D0F8B03803F40073F8
:105490009C42F9D0D0F8B03823F48033C0F8B0384B
:1054A00035E7D0F8B018D0F8B03801F4007143F403
:1054B0008033C0F8B038D0F8B03823F0FF031A4377
:1054C000C0F8B028D0F8B03883F48073C0F8B03892
:1054D000D0F8B03803F400739942F9D0D0F8D0086E
:1054E0002CE7504801B3D0F82049D0F8201904F433
:1054F000007421F48031C0F82019D0F8201921F06F
:10550000FF010A43C0F82029C0F83039D0F820390B
:1055100083F48073C0F820390346D3F8202902F4BD
:1055200000729442F9D0F2E6D0F82019D0F8203970
:1055300001F4007143F48033C0F82039D0F82039E9
:1055400023F0FF031A43C0F82029D0F8203983F450
:105550008073C0F820390346D3F8202902F4007282
:105560009142F9D0D3F84009E8E62E48A9B1D0F825
:10557000E01821F48031C0F8E018D0F8E01821F0EC
:10558000FF010A43C0F8E028C0F8F038D0F8003432
:1055900083F40043C0F80034B9E6D0F8E03843F4AF
:1055A0008033C0F8E038D0F8E03823F0FF031A4326
:1055B000C0F8E028D0F8003483F40043C0F8003489
:1055C000D0F81009BAE61748A9B1D0F8E01821F4CC
:1055D0008031C0F8E018D0F8E01821F0FF010A434C
:1055E000C0F8E028C0F8F038D0F8703583F0010337
:1055F000C0F870358BE6D0F8E03843F48033C0F85B
:10560000E038D0F8E03823F0FF031A43C0F8E02870
:10561000D0F8703583F00103C0F87035D0F8000978
:105620008CE600BF0040C84013460A460121FFF740
:105630004BBE00230A461946FFF746BE2DE9F0414E
:10564000DDF81880144605460E4604FA08F41F4695
:10565000FFF7EFFF3146444004EA07024240284684
:10566000BDE8F041FFF7E0BF2DE9F041EFF3108511
:1056700072B64F4C636913F4803325D00023C4F80D
:105680008430BFF34F8F636923F480336361BFF3CA
:105690004F8FD4F8803043F6E07CC3F3C907C3F3DF
:1056A0004E335B0103EA0C083E4648EA867E013E23
:1056B000C4F874E2F9D2203B13F1200FF2D1BFF30A
:1056C0004F8FBFF36F8F012359B93A4E3A4F346869
:1056D0003F6847F82420621C032A88BF0A463260CC
:1056E0000BE0012913D1354E354F34683F6847F838
:1056F00024200134032C16D83460BFF36F8FBFF31E
:105700004F8FB9B900F580300122C2611EE0022935
:1057100003D12C4E2C4F3468E8E7032905D12B4EDA
:105720002B4F3468E2E70022D9E785F31088042084
:10573000BDE8F081012906D0022935D0032905D121
:1057400000F58020E0E700F50030C16143B3184A5E
:10575000536913F4803323D1C2F88430BFF34F8FE1
:10576000D2F8803043F6E074C3F3C900C3F34E337C
:105770005B0103EA0407014647EA81760139C2F872
:105780006062F9D2203B13F1200FF2D1BFF34F8FAB
:10579000536943F480335361BFF34F8FBFF36F8F6F
:1057A00085F310880020C3E700F54030ACE700BF68
:1057B00000ED00E008B60020F8B500200CB600208F
:1057C000FCB5002010B6002000B6002014B6002062
:1057D00004B60020094AC0B213684340D9070BD56C
:1057E00000F001031360BFF34F8FBFF36F8F1032D0
:1057F00013684340DB07FBD4704700BF0065CC4013
:1058000070B50B4E86B01822002104466D4616F086
:105810001BFC0FCE0FC596E8030085E803006D461C
:105820000FCD0FC495E8030084E8030006B070BDF7
:10583000E0EB01002DE9F04F85B004469B46574E42
:1058400004F5802A564F04F54038DFF858C1DFF8D8
:1058500058E1CDE90212002210461146029B1B7846
:105860008BBB04F58035ED6B9DB3EFF31082019295
:1058700072B6002B3AD1DEF8002004F580301032E9
:10588000C06B00287ED04FF0000952F82900039D1C
:10589000854263D109F1010052F8200028B100F0DF
:1058A0007F42B2F1405F18BF0120ABBBDEF8005071
:1058B000012205EB8905C5E9043304F580335A63F9
:1058C0000122002352E0012B07D0022B08D0032B2A
:1058D00009D0BBF1010FC1D14EE004F50035C2E79C
:1058E000D8F83C50C0E7DAF83C50BDE7012B05D1B1
:1058F000DCF8002004F500301032C1E7022B04D19F
:105900003A68D8F83C001032BBE7032B40D132682C
:10591000DAF83C001032B4E7012B09D1DCF80020A2
:1059200002EB8902C2E9041104F500325363C7E7B0
:10593000022B08D13B6803EB89090123C9E9041153
:10594000C8F83430BCE7032BBAD1336803EB8903C2
:10595000C3E904110123CAF83430B1E709F102099F
:10596000B9F1080F91D1002201231046019D85F362
:105970001088BBF1010F07D10AB941F69C0005B0B0
:10598000BDE8F08F0246EFE7002B7FF467AFF6E744
:10599000BBF1010FF1D0042000225FE704B6002024
:1059A00000B60020FCB50020F8B50020F0B5C1B06D
:1059B00017460446E8220D4606A800211E4616F0AA
:1059C00043FB144A144B012FCDE90023134A73689B
:1059D00014BF13491349039232680293049205914C
:1059E0000AB9114A039293B1059B43F4806305936E
:1059F0006A4629782046FFF737FE03460028F7D18C
:105A00006A4629462046FFF715FF41B0F0BD064B18
:105A10000193EDE7060080B02000201204008212FE
:105A20000600508216005082020000A070B5C0B07F
:105A300016460446F0220D4604A8002116F004FB89
:105A40000E4B0F4A0296CDE900230E4B03938EB105
:105A500003F5006303936A4629782046FFF704FEA6
:105A600003460028F7D16A4629462046FFF7E2FEA2
:105A700040B070BD044B0193EDE700BF2000201241
:105A8000040080B000105082020000A02DE9F04117
:105A9000044686B001200D46FFF79CFE4FF0004300
:105AA000286863604FF0104363604E4B636030B909
:105AB0004D4B40F2BE614D4A4D4816F0A1F84D4E97
:105AC000302200210027306016F0BEFA4A4B3268BF
:105AD00004261F6004F5803368685A601032DE6067
:105AE0005A62DE6290B1DFF82C8130223946C8F864
:105AF000000016F0A9FA414BD8F800201F6004F509
:105B000000335A601032DE605A62DE62A86888B1E3
:105B10003B4E30220021306016F096FA394B0022BD
:105B200004211A6004F5403332685A601032D9609B
:105B30005A62D962E86898B1334E30220021306051
:105B400016F082FA314B002204211A6004F104138A
:105B500032681A6004F580231032D9605A62D96223
:105B60002B4B0022C4F800366B7C297C9B008DF8FF
:105B70000C2001F0030103F00C030B4343F48053AA
:105B8000CDE90122C4F80036D4F8C02612F0030291
:105B90000ED0D4F80034ABB12B7D0020AA7C5B0280
:105BA00043EAC223AA7D02F003021343E36006E046
:105BB00001AB03A92046FFF7F9FE0028E9D006B0A3
:105BC000BDE8F081D4F82034002BE5D1D4F840248E
:105BD000002AE1D103A92046FFF728FF0028DBD0E7
:105BE000EDE700BF00230800AEFA010017FB01003B
:105BF000CAFA0100F8B5002008B600200CB6002053
:105C000000B6002010B6002004B6002014B6002014
:105C100041100100FCB500202DE9F84F1C46054657
:105C20000E46184617461E4924229DF83080DDF89E
:105C300034B0DDE90AA916F0DFF9236843F0090260
:105C40002260BBF1000F1DD06369C4F808B043F4B3
:105C500000636361012FC4F8109002BF636943F0D1
:105C600010036361B8F1020FC4E907A910D1636999
:105C700043F480736361224631782846BDE8F84FCB
:105C8000FFF7F2BC43F4403343F009032360E1E73C
:105C9000B8F1010FEFD1636943F40073EAE700BF85
:105CA00024FB01002DE9F041C6B0044615461F460D
:105CB0009DF8346141F69C084E9B2A46204605918A
:105CC000CDE902634C9BCDE9007306ABFFF7A4FF5F
:105CD00040450599F0D020B9034606AA2046FFF7B3
:105CE000A9FD46B0BDE8F08100294FF4803214BF11
:105CF00004210821FFF798BC00294FF4004214BF8B
:105D000004210821FFF790BC0238002138B5C4B245
:105D10002DED028B2046FFF78CFC302105462046F6
:105D2000FFF787FC202108EE100A2046FFF781FCD0
:105D300007EE900AB8EE488B05F07F03B8EE675B7C
:105D4000012006EE103AC5F3426585EE087B00FAA5
:105D500005F5B8EEC66BBDEC028B37EE066B9FED1A
:105D6000087B26EE076B07EE905AB8EEE77B86EECF
:105D7000075BFCEEC57B17EE900A38BDAFF30080E1
:105D80000000000060E37641094A46F66063D1589E
:105D9000C9070BD40121D150BFF34F8FBFF36F8FD1
:105DA00002F5DC4270321368DB07FCD5704700BF98
:105DB0000000CC4010B54FF4005204460421FFF718
:105DC00033FC0649E12000F05FFD20464FF400520D
:105DD0000821BDE81040FFF727BC00BF00CA9A3B6E
:105DE00001282DE9F74304460E4617461D46DDE916
:105DF0000A8904D04FF480420821FFF715FCB9F15D
:105E0000000F0DD0B9F802001021B9F80020C0F33E
:105E10000E0040EA0242204642F40042FFF704FC32
:105E2000424630212046FFF7FFFB3A46202120461C
:105E3000FFF7FAFB00217F23324620460091FFF74F
:105E4000FDFB012C08D019232A460021204600938F
:105E50004FF06063FFF7F2FB4FF48002204604210D
:105E6000FFF7E2FB0649642000F00EFD4FF4C0424C
:105E70000421204603B0BDE8F043FFF7D5BB00BFC7
:105E800000CA9A3B426838B5A2F168030546682B00
:105E900005D9314B7821314A314815F0B1FE314BEB
:105EA000D3F80012880422D5D3F800128A431ED1F9
:105EB000D3F800222978D24302EAC13212F4C03F5B
:105EC00015D1D3F80022510405D4D3F8002242F4AE
:105ED0008042C3F80022234BD3F80022520005D59C
:105EE000D3F8002222F08042C3F8002238BD1D4CB6
:105EF000204602F055FFD4F8003213F4C04F23F0CF
:105F0000005322D12C782A79E403164D04F4C034CE
:105F10001443154A1A40144344F0804343F4005399
:105F2000C5F80032BFF34F8FBFF36F8F0F491E20AC
:105F300000F0AAFCD5F800329B00FBD524F0804489
:105F400044F4C044C5F80042D0E723F4C04343F012
:105F50008043C4F80032D5E748FB0100DDFC0100B6
:105F6000B9FB01000040C840007FFEDF00CA9A3B39
:105F700038B5414B0446D3F8402212022AD598B1D5
:105F8000D3F86032027A1D0400D46AB161683A4BDA
:105F90000D88D3F860024B88C3F30E0343EA054330
:105FA00043EAC233834215D1334BD3F840229004E5
:105FB00005D4D3F8402242F40052C3F84022D3F86B
:105FC0004022510005D5D3F8402222F08042C3F888
:105FD000402238BD284D284602F0E2FED5F8703246
:105FE000264A43F08033C5F87032D5F84032134268
:105FF00007D023F4000323F4005343F08043C5F893
:1060000040329CB1237A8BB162687AB123681A4915
:1060100023F040431088C1F8A0325388C3F30E0325
:1060200043EA004343F40043C1F86032124C1E209F
:10603000134B1449C4F8403200F026FC124B1149AE
:10604000FA20C4F8403200F01FFC104BC4F8403274
:106050002346D3F840229200FBD50D4AC3F84022D4
:1060600002F14042C3F84022D3F8702202F07F329E
:10607000C3F87022ADE700BF0040C8400020800098
:106080000800004000CA9A3B080880400800804091
:1060900008208040232AF7B506D92B4B40F2351152
:1060A0002A4A2B4815F0ACFD0B2A04D8294B4FF493
:1060B0009B71264AF5E7022806D0032841D0264BDB
:1060C0004FF4A271214AECE7244E254BCC003F2728
:1060D0001D688020A740D3F800C0A0403D40E540A7
:1060E000AA4206D108250CEA000CCD403CFA05F581
:1060F00025D04025D3F800C0A240A5400CEA050CED
:10610000CDF804C0D3F800C040EA0C0CC3F800C0BE
:10611000D3F800C02CEA07071F601F683A431A60D3
:106120000222346802FA01F1614031601A6822EA01
:10613000000018601A6801992A408A42FAD003B018
:10614000F0BD084E084BC1E707FC0100EEFC010062
:10615000B9FB010025FC010043FC01005042C8408E
:106160007042C8402042C8403042C84008B5831E33
:10617000DBB2012B06D9154B4FF4C371144A1548F5
:1061800015F03EFDC9003F230328134A03FA01F32B
:106190000BD0D2F870021840104BC8400B2809D819
:1061A0000F4B40F29B110A4AE9E7D2F8300218403F
:1061B0000C4BF2E7232804D90B4B4FF4CE71044A61
:1061C000DDE7B3FBF0F01223584308BD49FC0100A2
:1061D000FCFC0100B9FB01000040C84000A4781F8E
:1061E0007CFC010000389C1C9BFC010010B5214C7C
:1061F000D4F8103213F4001F234614D0D4F8102220
:10620000910405D4D4F8102242F40052C4F81022AC
:10621000D3F81022520005D5D3F8102222F0804284
:10622000C3F8102210BD204602F0BAFDD4F8303277
:1062300011491E2043F08033C4F830320F4BC4F8AC
:10624000103200F021FB0E4B0B491E20C4F8103217
:1062500000F01AFB0B4BC4F81032D4F810329B003C
:10626000FBD5094BC4F8103203F14043C4F8103297
:10627000D8E700BF0040C84000CA9A3B1000004069
:1062800010082040100020401820204008B50528A4
:1062900031D8DFE800F0030F14202C2E194AD2F871
:1062A000003221B143F40033C2F8003208BD23F4B8
:1062B0000033F9E70120BDE80840FFF715BD114A9A
:1062C000D2F8403221B143F48033C2F84032EDE7D6
:1062D00023F48033F9E70B4AD2F8103221B143F4AA
